{
  "contractName": "FeedbackContract",
  "abi": [
    {
      "inputs": [
        {
          "internalType": "uint8",
          "name": "_rating",
          "type": "uint8"
        },
        {
          "internalType": "string",
          "name": "_comments",
          "type": "string"
        }
      ],
      "name": "addFeedback",
      "outputs": [],
      "stateMutability": "nonpayable",
      "type": "function"
    },
    {
      "inputs": [],
      "name": "getFeedbackCount",
      "outputs": [
        {
          "internalType": "uint256",
          "name": "",
          "type": "uint256"
        }
      ],
      "stateMutability": "view",
      "type": "function"
    },
    {
      "inputs": [
        {
          "internalType": "uint256",
          "name": "_index",
          "type": "uint256"
        }
      ],
      "name": "getFeedback",
      "outputs": [
        {
          "internalType": "uint8",
          "name": "",
          "type": "uint8"
        },
        {
          "internalType": "string",
          "name": "",
          "type": "string"
        }
      ],
      "stateMutability": "view",
      "type": "function"
    },
    {
      "inputs": [
        {
          "internalType": "uint256",
          "name": "_index",
          "type": "uint256"
        }
      ],
      "name": "deleteFeedback",
      "outputs": [],
      "stateMutability": "nonpayable",
      "type": "function"
    }
  ],
  "bytecode": "0x608060405234801561001057600080fd5b50610cb2806100206000396000f3fe608060405234801561001057600080fd5b506004361061004c5760003560e01c80631106a3821461005157806338c5c86b14610082578063745e739a146100a05780639e3989bd146100bc575b600080fd5b61006b60048036038101906100669190610483565b6100d8565b60405161007992919061055c565b60405180910390f35b61008a610216565b604051610097919061059b565b60405180910390f35b6100ba60048036038101906100b59190610483565b610222565b005b6100d660048036038101906100d19190610717565b610356565b005b600060606000805490508310610123576040517f08c379a000000000000000000000000000000000000000000000000000000000815260040161011a906107bf565b60405180910390fd5b6000808481548110610138576101376107df565b5b90600052602060002090600202016040518060400160405290816000820160009054906101000a900460ff1660ff1660ff16815260200160018201805461017e9061083d565b80601f01602080910402602001604051908101604052809291908181526020018280546101aa9061083d565b80156101f75780601f106101cc576101008083540402835291602001916101f7565b820191906000526020600020905b8154815290600101906020018083116101da57829003601f168201915b5050505050815250509050806000015181602001519250925050915091565b60008080549050905090565b6000805490508110610269576040517f08c379a0000000000000000000000000000000000000000000000000000000008152600401610260906107bf565b60405180910390fd5b6000600160008054905061027d919061089d565b8154811061028e5761028d6107df565b5b9060005260206000209060020201600082815481106102b0576102af6107df565b5b90600052602060002090600202016000820160009054906101000a900460ff168160000160006101000a81548160ff021916908360ff160217905550600182018160010190816103009190610a93565b50905050600080548061031657610315610b7b565b5b6001900381819060005260206000209060020201600080820160006101000a81549060ff021916905560018201600061034f91906103dc565b5050905550565b600060405180604001604052808460ff168152602001838152509050600081908060018154018082558091505060019003906000526020600020906002020160009091909190915060008201518160000160006101000a81548160ff021916908360ff16021790555060208201518160010190816103d49190610baa565b505050505050565b5080546103e89061083d565b6000825580601f106103fa5750610419565b601f016020900490600052602060002090810190610418919061041c565b5b50565b5b8082111561043557600081600090555060010161041d565b5090565b6000604051905090565b600080fd5b600080fd5b6000819050919050565b6104608161044d565b811461046b57600080fd5b50565b60008135905061047d81610457565b92915050565b60006020828403121561049957610498610443565b5b60006104a78482850161046e565b91505092915050565b600060ff82169050919050565b6104c6816104b0565b82525050565b600081519050919050565b600082825260208201905092915050565b60005b838110156105065780820151818401526020810190506104eb565b60008484015250505050565b6000601f19601f8301169050919050565b600061052e826104cc565b61053881856104d7565b93506105488185602086016104e8565b61055181610512565b840191505092915050565b600060408201905061057160008301856104bd565b81810360208301526105838184610523565b90509392505050565b6105958161044d565b82525050565b60006020820190506105b0600083018461058c565b92915050565b6105bf816104b0565b81146105ca57600080fd5b50565b6000813590506105dc816105b6565b92915050565b600080fd5b600080fd5b7f4e487b7100000000000000000000000000000000000000000000000000000000600052604160045260246000fd5b61062482610512565b810181811067ffffffffffffffff82111715610643576106426105ec565b5b80604052505050565b6000610656610439565b9050610662828261061b565b919050565b600067ffffffffffffffff821115610682576106816105ec565b5b61068b82610512565b9050602081019050919050565b82818337600083830152505050565b60006106ba6106b584610667565b61064c565b9050828152602081018484840111156106d6576106d56105e7565b5b6106e1848285610698565b509392505050565b600082601f8301126106fe576106fd6105e2565b5b813561070e8482602086016106a7565b91505092915050565b6000806040838503121561072e5761072d610443565b5b600061073c858286016105cd565b925050602083013567ffffffffffffffff81111561075d5761075c610448565b5b610769858286016106e9565b9150509250929050565b7f496e646578206f7574206f662072616e67650000000000000000000000000000600082015250565b60006107a96012836104d7565b91506107b482610773565b602082019050919050565b600060208201905081810360008301526107d88161079c565b9050919050565b7f4e487b7100000000000000000000000000000000000000000000000000000000600052603260045260246000fd5b7f4e487b7100000000000000000000000000000000000000000000000000000000600052602260045260246000fd5b6000600282049050600182168061085557607f821691505b6020821081036108685761086761080e565b5b50919050565b7f4e487b7100000000000000000000000000000000000000000000000000000000600052601160045260246000fd5b60006108a88261044d565b91506108b38361044d565b92508282039050818111156108cb576108ca61086e565b5b92915050565b6000815490506108e08161083d565b9050919050565b60008190508160005260206000209050919050565b60006020601f8301049050919050565b600082821b905092915050565b6000600883026109497fffffffffffffffffffffffffffffffffffffffffffffffffffffffffffffffff8261090c565b610953868361090c565b95508019841693508086168417925050509392505050565b6000819050919050565b600061099061098b6109868461044d565b61096b565b61044d565b9050919050565b6000819050919050565b6109aa83610975565b6109be6109b682610997565b848454610919565b825550505050565b600090565b6109d36109c6565b6109de8184846109a1565b505050565b5b81811015610a02576109f76000826109cb565b6001810190506109e4565b5050565b601f821115610a4757610a18816108e7565b610a21846108fc565b81016020851015610a30578190505b610a44610a3c856108fc565b8301826109e3565b50505b505050565b600082821c905092915050565b6000610a6a60001984600802610a4c565b1980831691505092915050565b6000610a838383610a59565b9150826002028217905092915050565b818103610aa1575050610b79565b610aaa826108d1565b67ffffffffffffffff811115610ac357610ac26105ec565b5b610acd825461083d565b610ad8828285610a06565b6000601f831160018114610b075760008415610af5578287015490505b610aff8582610a77565b865550610b72565b601f198416610b15876108e7565b9650610b20866108e7565b60005b82811015610b4857848901548255600182019150600185019450602081019050610b23565b86831015610b655784890154610b61601f891682610a59565b8355505b6001600288020188555050505b5050505050505b565b7f4e487b7100000000000000000000000000000000000000000000000000000000600052603160045260246000fd5b610bb3826104cc565b67ffffffffffffffff811115610bcc57610bcb6105ec565b5b610bd6825461083d565b610be1828285610a06565b600060209050601f831160018114610c145760008415610c02578287015190505b610c0c8582610a77565b865550610c74565b601f198416610c22866108e7565b60005b82811015610c4a57848901518255600182019150602085019450602081019050610c25565b86831015610c675784890151610c63601f891682610a59565b8355505b6001600288020188555050505b50505050505056fea2646970667358221220f1b35932a7e5f578b853b8de8efc997059d48db39eedb628b83d5a6bcfc6c96164736f6c63430008130033",
  "immutableReferences": {},
  "source": "// SPDX-License-Identifier: MIT\r\npragma solidity ^0.8.0;\r\n\r\ncontract FeedbackContract {\r\n    struct Feedback {\r\n        uint8 rating;\r\n        string comments;\r\n    }\r\n\r\n    Feedback[] private feedbacks;\r\n\r\n    function addFeedback(uint8 _rating, string memory _comments) public {\r\n        Feedback memory newFeedback = Feedback(_rating, _comments);\r\n        feedbacks.push(newFeedback);\r\n    }\r\n\r\n    function getFeedbackCount() public view returns (uint256) {\r\n        return feedbacks.length;\r\n    }\r\n\r\n    function getFeedback(uint256 _index) public view returns (uint8, string memory) {\r\n        require(_index < feedbacks.length, \"Index out of range\");\r\n        Feedback memory feedback = feedbacks[_index];\r\n        return (feedback.rating, feedback.comments);\r\n    }\r\n\r\n    function deleteFeedback(uint256 _index) public {\r\n        require(_index < feedbacks.length, \"Index out of range\");\r\n        feedbacks[_index] = feedbacks[feedbacks.length - 1];\r\n        feedbacks.pop();\r\n    }\r\n}\r\n",
  "sourcePath": "D:\\MCA\\2nd Sem\\RBL\\Feedback_DApp\\back-end\\contracts\\feedback.sol",
  "compiler": {
    "name": "solc",
    "version": "0.8.19+commit.7dd6d404.Emscripten.clang"
  },
  "schemaVersion": "3.4.13",
  "updatedAt": "2023-04-25T14:37:38.900Z",
  "devdoc": {
    "kind": "dev",
    "methods": {},
    "version": 1
  },
  "userdoc": {
    "kind": "user",
    "methods": {},
    "version": 1
  }
}